:020000040800F2
:1000000028A20020F9030008E1740008315B000811
:10001000DD740008F522000871830008000000006C
:100020000000000000000000000000004103000884
:10003000932400080000000095030008957B000849
:100040001304000813040008130400081304000834
:100050001304000813040008130400081304000824
:100060001304000813040008130400081304000814
:100070001304000813040008130400081304000804
:1000800013040008130400081304000813040008F4
:1000900013040008130400081304000813040008E4
:1000A00013040008130400081304000813040008D4
:1000B00013040008130400081304000813040008C4
:1000C00013040008130400081304000813040008B4
:1000D00013040008618300081304000813040008D7
:1000E0002127000813040008130400081304000863
:1000F0001304000813040008130400081304000884
:100100001304000813040008130400081304000873
:100110001304000813040008757C00081304000889
:100120001304000813040008130400081304000853
:100130001304000813040008130400081304000843
:100140001304000813040008130400081304000833
:100150001304000813040008130400081304000823
:100160001304000813040008130400081304000813
:100170001304000813040008130400080000000022
:1001800013040008130400081304000813040008F3
:1001900013040008130400081304000813040008E3
:1001A00013040008130400081304000800F002F808
:1001B00000F0B6F80AA090E8000C82448344AAF14B
:1001C0000107DA4501D100F0ABF8AFF2090EBAE849
:1001D0000F0013F0010F18BFFB1A43F0010318477B
:1001E000B0EC0000D0EC00000A444FF0000C10F816
:1001F000013B13F0070408BF10F8014B1D1108BFA5
:1002000010F8015B641E05D010F8016B641E01F844
:10021000016BF9D113F0080F1EBF10F8014BAD1C94
:100220000C1B09D16D1E58BF01F801CBFAD505E0B2
:1002300014F8016B01F8016B6D1EF9D59142D6D30C
:10024000704700000023002400250026103A28BF34
:1002500078C1FBD8520728BF30C148BF0B60704738
:100260006E2900F03685702900F0BB8266290AF0FD
:10027000C68665290AF0C38667290AF0C086612907
:100280000AF0BF8603681B0A28BF41F08001692974
:1002900000F02C82642900F02982752900F0268262
:1002A0006F2900F03786782900F08782E92900F06D
:1002B000D185E42900F0CE85F52900F0CB85EF2922
:1002C00000F03486F82900F086820368DB0928BF35
:1002D00041F08001632900F04085732900F04585D5
:1002E000E32901F02582F32901F02A8200207047DA
:1002F0001FB50AF07FFE9DE8030000F049FC01F005
:100300007BFA0400002000210AF05EFE401C6060C1
:10031000002000210AF042FEE0601FBD10B510BDB4
:1003200001F03DFA1146FFF7E3FF08F0CFFD01F0C1
:1003300015FB03B4FFF7F2FF03BC08F056F800000A
:100340002A4B19680868B0E8F04F80F30988BFF3BA
:100350006F8F4FF0000080F311887047000000009D
:1003600006480068006880F3088862B661B6BFF38B
:100370004F8FBFF36F8F00DF00BF00BF08ED00E0BD
:10038000DFF80C00016841F470010160704700BFA4
:1003900088ED00E0EFF30980BFF36F8F134B1A680D
:1003A0001EF0100F08BF20ED108A20E9F04F1060FA
:1003B00008B44FF0500080F31188BFF34F8FBFF3A4
:1003C0006F8F0AF029F84FF0000080F3118808BC05
:1003D00019680868B0E8F04F1EF0100F08BFB0ECC5
:1003E000108A80F30988BFF36F8F7047EC040020F8
:1003F000EFF305807047000009488047094800472F
:10040000FEE7FEE7FEE7FEE7FEE7FEE7FEE7FEE7C4
:10041000FEE7FEE704480549054A064B7047000021
:10042000617C0008AD010008289C002028A2002063
:10043000289E0020289E0020704770B5064600F0D8
:100440008BFB056806F10B0020F00704B4429CBF4B
:10045000002070BD2B466A68BAB11068A04210D364
:1004600004F1080188423CBF5068586007D35168C6
:10047000101941601168091B016058601460101D5B
:1004800070BD13465268002AE7D12146284600F085
:100490006BFB0028DED170BD70B50446051F00F06F
:1004A0005BFB0068002C14BF446870BD002C18BFB3
:1004B000AC423CBF20466468F8D301680A18AA42DF
:1004C00018BF456003D12A680546114401602868B9
:1004D0004119A1421CBF6C6070BD616869602168F0
:1004E0000844286070BD53EA020C00F069802DE9D1
:1004F000F04B4FF00006002B1FBFB3FA83F503FA51
:1005000005F424FA05F65E4012BF1643B2FA82F5EE
:1005100002FA05F4C5F120051EBF22FA05FC44EAE3
:100520000C04203556EA044C4FEA144418BF641CEE
:100530004FF000084FF00009904271EB030C39D3E3
:10054000002919BFB1FA81F701FA07F6B0FA80F76E
:1005500000FA07F6C7F120071EBF20FA07FC46EA9B
:100560000C062037B6FBF4FCA7EB0507103F07F09D
:100570001F0BCBF120060CFA0BFB2CFA06F644BF3E
:10058000B3460026202FA4BF5E464FF0000B5BEA67
:10059000060C08BF4FF0010B19EB0B09ABFB027CFB
:1005A00048EB0608C01B06FB02CC0BFB03CC71EB2F
:1005B0000C01C1E70B46024641464846BDE8F08BB8
:1005C00013B54FF000004FF00001AFF30080BDE81D
:1005D0001C4070477CB51D4616460C00009001D0AB
:1005E0002044401E074B7B442A4669460190304612
:1005F00000F089FB05461CB10020694600F096FB1F
:1006000028467CBD4D0700000FB4044910B503AA6D
:10061000029800F0AFFB10BC5DF814FB1C0000203A
:100620000FB41CB5084B06AA7B4469460090059898
:1006300000F069FB04460020694600F077FB204685
:100640001CBC5DF814FB00000107000070B50446F7
:1006500085690068C10601D5302600E02026C00764
:1006600007D070BDD4E9012130469047206A401C74
:1006700020626D1EF6D570BD70B5044685690078A0
:10068000C00707D170BDD4E9012120209047206A1E
:10069000401C20626D1EF6D570BD70B50C46054637
:1006A000012A05D02878800600D5EA69002302E0F7
:1006B000012305E05B1C934202D2E05C0028F9D1E3
:1006C000A869E618C01AA861286A18442862284652
:1006D000FFF7BCFF04E0D5E9012114F8010B9047B6
:1006E000B442F8D32846FFF7C7FF70BD2DE9F041AB
:1006F0000646002410687529314616A510D000F072
:100700007DFA002802DA404213A507E031688A0723
:1007100001D512A502E0490704D511A5012401E085
:1007200000F075FA00210A2206F1240709E0B0FB67
:10073000F2FCB0FBF2F302FB1C0030307854184698
:10074000491C0028F3D123462A463046BDE8F04133
:1007500000F066BA000000002D0000002B00000031
:1007600020000000F0B40D460188090502D5214C97
:100770007C4402E01F4C7C440E34002100F124062E
:1007800008E002F00F071209E75D42EA03721B0955
:100790007754491C52EA0307F3D102780023120769
:1007A00004D5702D06D009B1022311342246F0BCC5
:1007B00000F036BA01231034F8E770B504460D4650
:1007C0002146106800F023FA024629462046BDE87B
:1007D00070400023C6E7D21D22F00703D3E90023AF
:1007E000C0E70368126843F0200303600823C36175
:1007F0000023B7E71FE600002DE9F05F89460446B5
:100800004FF0000ADFF874B1FB44C0F820A0204686
:10081000E1688847002874D0252806D0D4E9012152
:100820009047206A401C2062F1E700265F46204680
:10083000E16888472028054607DB312D05D2781965
:1008400010F8200C08B10643F1E7B00701D526F0F7
:100850000406C4F81CA00027C4F818A02A2D09D04B
:10086000284607F0BBFD38B304EB8708303DC8F8D5
:10087000185019E059F8041B204604EB87029161D7
:10088000E1688847012F054618D1E069002820DA81
:1008900026F020061DE0D8F8180000EB800005EBDC
:1008A00040003038C8F818002046E16888470546FF
:1008B00007F094FD0028EED1012F0AD02E2D08D18B
:1008C0002046E16888477F1C0546022F46F0200637
:1008D000C4DBA069002803DA404246F00106A061AB
:1008E000F00701D026F010066C2D0BD0682D09D032
:1008F0004C2D39D06A2D35D0742D35D07A2D33D08A
:1009000016E038E0E1682F4620468847B8420546A1
:1009100009D16C2F26D04FF48060E1680643204651
:100920008847054604E06C2F1AD04FF480700643C8
:100930000DB3A5F14100192802D8203546F4006610
:100940004A462946204626604E46FFF789FC80B17C
:1009500001280BD0F61D26F0070000F1080956E724
:100960004020E4E78020D8E70020D6E706F104091C
:100970004DE7284652E7206ABDE8F09FAFE500004A
:1009800010B5431C02E010F8011B71B18107FAD1C8
:100990004FF0013202C88C1A8C4314EAC211F9D00C
:1009A000C01A0A0603D0C01E10BDC01A10BD0A042A
:1009B00001D0801E10BD0902FCD0401E10BD032ACC
:1009C00040F2308010F0030C00F0158011F8013B6C
:1009D000BCF1020F624498BF11F801CB00F8013B53
:1009E00038BF11F8013BA2F1040298BF00F801CB17
:1009F00038BF00F8013B11F0030300F02580083AEE
:100A0000C0F0088051F8043B083A51F804CBA0E844
:100A10000810F5E7121D5CBF51F8043B40F8043B99
:100A2000AFF30080D20724BF11F8013B11F801CBCE
:100A300048BF11F8012B24BF00F8013B00F801CB9F
:100A400048BF00F8012B704710B5203AC0F00B806A
:100A5000B1E81850203AA0E81850B1E81850A0E8C2
:100A60001850BFF4F5AF5FEA027C24BFB1E818501C
:100A7000A0E8185044BF18C918C0BDE810405FEA8C
:100A8000827C24BF51F8043B40F8043B08BF704708
:100A9000D20728BF31F8023B48BF11F8012B28BF0D
:100AA00020F8023B48BF00F8012B704702F0FF031B
:100AB00043EA032242EA024200F002B84FF0000289
:100AC0000429C0F0128010F0030C00F01B80CCF160
:100AD000040CBCF1020F18BF00F8012BA8BF20F8CE
:100AE000022BA1EB0C0100F00DB85FEAC17C24BF22
:100AF00000F8012B00F8012B48BF00F8012B7047CC
:100B00004FF0000200B5134694469646203922BFA6
:100B1000A0E80C50A0E80C50B1F12001BFF4F7AFF1
:100B2000090728BFA0E80C5048BF0CC05DF804EBD3
:100B3000890028BF40F8042B08BF704748BF20F841
:100B4000022B11F0804F18BF00F8012B704770473F
:100B5000704770477047000000487047CC9B0020EA
:100B6000704770477047704738B504460A46002002
:100B70006946AFF30080002808BF38BD02460099DF
:100B8000204600F0E1F9012038BD012000F000BE50
:100B9000F8B5AFF30080054600200C46102000BFDA
:100BA0000646A819A0420DD9324669460020AFF387
:100BB0000080070008BF00F0EBFD0098A04218BFBE
:100BC0000546C419FFF7C8FF05600746F01D20F071
:100BD00007004619284600F00AF8B44208BFF8BDDD
:100BE000A21B31463868BDE8F84000F0ADB90021DD
:100BF0000160C0E9011070471020704709684A057C
:100C000001D540B27047C905FCD500B270470968EC
:100C10004A0501D5C0B27047C905FCD580B27047FE
:100C20002DE9F0470D4699469246044600F1240806
:100C30000168880604D5E06921F01001216000E018
:100C40000120A84201DD471B00E00027A1697A19B5
:100C500002EB0900081AA0612078C00602D42046E1
:100C6000FFF7F4FC002608E0D4E901211AF8060099
:100C70009047206A401C761C20624E45F4DB2078A9
:100C8000C0060AD52046FFF7E1FC06E0D4E90121C1
:100C900030209047206A401C2062381EA7F10107CF
:100CA000F4DC07E0D4E9012118F805009047206A38
:100CB000401C2062281EA5F10105F3DC2046FFF749
:100CC000DBFC2078000602D50220BDE8F087012079
:100CD000FBE711680268006A530501D508700AE055
:100CE000D30501D5088006E0130603D5C217C1E974
:100CF000000200E0086001207047000001694A1C02
:100D000002610878704700B58FB0CDE9013100214C
:100D1000059105497944CDE9031011466846FFF76E
:100D20006BFD0FB000BD0000E5FFFFFF0A6802F891
:100D3000010B0A607047D1E900239A4202D2531C8A
:100D40000B601070704710B5436913B1AFF30080AA
:100D500001E0FFF7A2FC012010BD127800F1240190
:100D60000A7000224A700122EDE711684FF0FF324D
:100D7000E9E70000074B70B50D467B44FFF7C3FF62
:100D80000446284600F0E0FC10B14FF0FF3070BD83
:100D9000204670BD377700002DE9FF5F15468A4673
:100DA0000446DFF8AC80F8440027D8E900103E463E
:100DB000CDE9001010E03AF816106A4602A800F0DB
:100DC000C7FC411C07D02178890603D5E269391890
:100DD00091420DD80744761C2078800602D5E06940
:100DE000B84205DDAE42E6DB3AF816000028E2D153
:100DF000A069C01BA0612046FFF728FCD8E90010BD
:100E0000CDE90010002017E03AF818106A4602A851
:100E100000F09EFCB0F1FF3F81460BD000250DF1A4
:100E2000080B05E0D4E901211BF8050090476D1C73
:100E30004D45F7D308F10100B0428046E4DB206A5B
:100E4000384420622046FFF717FCBDE8FF9F0000F2
:100E500022E000002DE9F0418046D21D22F0070279
:100E60000025D2E90002F52915A614D0011E72F161
:100E7000000106DA0023D0EB030063EB020211A6A7
:100E800008E0D8F800108B0701D50FA602E049074B
:100E900001D50EA601251146002408F1240704E01F
:100EA00000F06CF830323A55641C50EA0102F7D178
:100EB0002B46324621464046BDE8F041FFF7B0BE22
:100EC000000000002D0000002B00000020000000AA
:100ED00030B4002100F1240408E002F00705D20834
:100EE000303542EA4372DB086554491C52EA030577
:100EF000F3D10468002310A2250708D504F02004CC
:100F00000C4304D0C46901230CA2641EC46130BC2C
:100F1000FFF786BE10B5044621461068FFF777FE3E
:100F200002462046BDE810400023D1E7D21D22F042
:100F30000701D1E90023CBE70000000030000000EA
:100F400000487047C49B0020034640688C46002838
:100F500018BF88423CBF03464068F8D3186818445D
:100F6000884207D00CF1030020F00700001D411A51
:100F7000521A0146081D0A60FFF78EBA30B5B0F16B
:100F80000A024FEA900E71F100034EEA817EB0EB47
:100F90000E0061EB91014FEA101E4EEA017E10EB4C
:100FA0000E0041EB11114FEA102E4EEA016E10EBCC
:100FB0000E0041EB11214FEA104E4EEA014E10EBAC
:100FC0000E0041EB1141401841F100014FEAD00001
:100FD00040EA41704FEAD10110EB80054FEA8104ED
:100FE00044EA907444EB01046D1944EB0404521B71
:100FF000A3414FF0000348BF0A3200D530BD401C6A
:1010000041F1000130BD70472DE9FF4F0C461E46EF
:101010004FF0FF378BB0D2E90001DDF860800A9015
:101020008A46C1F30A5505B93D46002108464FF0EE
:101030000000BAF1000F00F4400005DA00EB800078
:101040004FF4400101EA50004FEA9059B9F1010F05
:1010500000DDB9460A9850EA4A000ED044F6105016
:10106000A5F2FF3545432F14B8F1000F1ED075428D
:10107000291E1EDDC9F100021CE0B8F1010F4FF07E
:10108000000001D0302103E0F24305E02154401C70
:10109000B042FBDB30460022002121540B99C1F8FD
:1010A0000880C1E900200FB0BDE8F08FBD1B6D1CAA
:1010B000DEE74A4600DA694206A800F0E1FB06AB2B
:1010C00093E8070003AB83E8070050460A9900F055
:1010D000D5FC8DE80700A0F500501F38009003985C
:1010E000002D09DD42F21F014A46084403A903907E
:1010F000684600F034FF08E0A0F500504A461F386B
:1011000003A90390684600F03EFF8DE80700000445
:10111000000C03D04FF0FF30410800E01046B8F15A
:10112000000F03D00022009215461EE0751E05D464
:10113000FFF724FF303262556D1EF9D5B346012208
:10114000084302D000227F1C04E02078302801D11F
:1011500000227F1E002A099786D01DE0112D07DA94
:10116000FFF70CFF303262556D1C50EA0102F5D1D9
:10117000084302D00098C8B10EE00021681E05E0C7
:10118000235C625C63542254401E491C8142F7DB9D
:10119000AB46A81B401E0990002004F80B000B98DA
:1011A000099AC0F80880C0E9002B7CE711264FF0AF
:1011B000000859E72DE9F04F88460446D21D22F079
:1011C000070191B0D1E90001CDE90A0107F0D2F899
:1011D00002460B98C00F01D02D2007E02068810740
:1011E00001D52B2002E0202101EAC000032A09904A
:1011F00001D0072A05DB03464146204600F000FBEC
:101200000BE12078800601D5E06900E00620B8F106
:10121000650F814606D0B8F1660F18D0B8F1670F98
:1012200070D131E00020B9F1110F009001DB1123E2
:1012300001E009F101030AAA01A90CA8FFF7E4FEE5
:10124000DDE90C70002609F10105834647E0012025
:101250004B4600904FF000470AAA01A90CA8FFF7DF
:10126000D3FEDDE90DB00C995D46002610B909F1F9
:1012700001000D18B9EB050003D4C0F1FF3609F1E8
:101280000105A5EB09002BE0B9F1010F01DA4FF0E0
:1012900001090020B9F1110F0090484601DD11232A
:1012A00000E003460AAA01A90CA8FFF7ADFEDDE99C
:1012B0000C704D4600268346207800070AD4AB45C3
:1012C00000DA5D4601A8012D04DD411911F8011C69
:1012D000302907D04F4502DA17F1040F04DA012054
:1012E00082460FE06D1EEEE7002F02DCED1B3E4450
:1012F00003E0781CA84200DD7D1CB81B00F1010A48
:101300004FF000472078000703D4AA4501DB4FF0D7
:10131000FF3A0021B7F1004F0DF143088DF843105B
:1013200024D002202B23002F01DA7F422D230A2113
:10133000021EA0F1010000DC5FB197FBF1FC97FBFE
:10134000F1F201FB1C7C17460CF1300C08F801CDC2
:10135000EEE7A8F1010003702188090501D54521B8
:1013600000E06521A0F1010800F8011C09980FA90F
:10137000A1EB0807FF1D00B10120411901EBEA7044
:10138000A1693844081A401EA0612078C00602D422
:101390002046FFF75BF9099828B1D4E9012190476D
:1013A000206A401C20622078C00622D52046FFF724
:1013B0004DF91EE0002E04DBB34502DD01A8805D7F
:1013C00000E03020D4E901219047206A401C2062CF
:1013D000761CAAF101005FEA000A0AD100F00CFABB
:1013E000C0680168405CD4E901219047206A401C34
:1013F0002062281EA5F10105DCDC07E0D4E901210B
:1014000018F8010B9047206A401C2062381EA7F193
:101410000107F3DC2046FFF72FF9032011B043E664
:101420002DE9F04F04460D46D21D22F0070089B089
:10143000D0E900974846394606F09CFF0246F80F6F
:1014400001D02D2307E02068810701D52B2302E07E
:10145000202101EAC0038DF820300BB1012000E00B
:101460000020032A824601D0072A04DB29462046B1
:1014700000F0C6F93FE12078800601D40D2500E098
:10148000E569C7F30A560D2D49DA00214FEA175BCB
:1014900008464FF00000002F00F4400007DA00EB90
:1014A00080004FF4400100EBD07001EA600081152C
:1014B000012901DD4FF0FF3100224FEA850CBCF11C
:1014C000180F06D31346ACF118004FF08052C240FB
:1014D00003E04FF4801323FA0CF30CF10C0CBCF175
:1014E000200F04D3ACF1200C09FA0CF001E007FA4C
:1014F0000CF000294FF0004801DD18B90FE00ED1C3
:1015000040450CD319EB02095F4121B9404502D196
:101510009F4329EA0209BBEB175F00D0761C2088A5
:10152000000502D57B48784402E07A4878441938AF
:1015300008AA302302F80A30037C0AF10101002EC8
:101540000AF1020A53546A4602DC4FF0300101E00E
:101550004FF031014FF001088DF8001002D0A6F2D3
:10156000FF3603E059EA470100D06B4E002D02DC44
:101570002178090704D54FF002082E218DF80110BB
:10158000C44600210BE0C7F303433F01C35C491C81
:101590006D1E02F80830052908F1010801DA002D56
:1015A000F1DC00210CE000EB1973491C1B786D1E67
:1015B000082902F808304FEA091908F1010801DA90
:1015C000002DF0DC21688B0602D516E0A8F1010899
:1015D000E04505DD02EB080313F8013C302BF5D0A4
:1015E000B8F1000F09DD02EB080313F8013C2E2BC4
:1015F00003D1090701D4A8F10108002D05DD3E2122
:1016000002F808106D1E08F10108407C002E02F857
:10161000080008F1010804DA2D20764202F80800DB
:1016200002E02B2002F808000A214FF47A7086426B
:1016300008F101080BDB96FBF0F3303302F80830B9
:1016400096FBF0F308F1010800FB136601E0642E3D
:101650000CDB642096FBF0F3303302F8083096FB85
:10166000F0F308F1010800FB136601E00A2E06DB27
:1016700096FBF1F0303002F8080008F1010896FB03
:10168000F1F001FB1060303002F80800A16908F1A8
:10169000010808EB050202EB0A00081AA061207895
:1016A000C00602D42046FEF7D1FF216A08AE01EB46
:1016B0000A00206204E0D4E9012116F8010B9047EA
:1016C000BAF1010AF7D22078C00602D52046FEF70B
:1016D000BDFF6E4609E016F8010B3E280FD0D4E995
:1016E00001219047206A401C2062B8F10108F2D223
:1016F0002046FEF7C1FF09B00320BDE8F08F206A45
:101700002844206203E0D4E90121302090476D1E77
:10171000EBD3F8E7BDD8000002FCFFFF10B543692A
:1017200013B1AFF3008001E0FFF736FB012010BDDD
:10173000128800F1240182840022C2840122EDE794
:1017400011684FF0FF32E9E7007B00F0800070473E
:1017500070B516460C46054600F046F8036893F847
:101760000101012806D0FF2C0FD8185D68B10120B7
:101770002C7070BDD3F807013246214603F20713DF
:1017800003442846BDE8704018474FF0FF3070BD55
:1017900010B500F0F1F8BDE8104000F0E8B875466B
:1017A000FFF7CEFBAE4605006946534620F0070022
:1017B000854618B020B5FEF72DFEBDE820404FF05D
:1017C00000064FF000074FF000084FF0000B21F02B
:1017D0000701AC46ACE8C009ACE8C009ACE8C009F8
:1017E000ACE8C0098D46704710B500F005F8001D43
:1017F00010BD00BFD597000000487047E49B002053
:101800002DE9F0411F46044603260168072A01F42A
:10181000006004DB08B116A505E016A503E008B1D9
:1018200015A500E015A521F010002060A069C01EDC
:10183000A0610FB1401EA0612046FEF707FF4FB127
:10184000D4E9012138469047206A401C2062C01C20
:10185000206206E0206AFAE7D4E9012115F8010BBD
:101860009047761EF8D22046FEF706FFBDE8F081CD
:101870004E414E006E616E00494E4600696E660034
:101880002DE9F047814616468AB0334878440DC8A2
:101890008DE80D0030487844801C03AC0DC884E806
:1018A0000D0041F69B300844372190FBF1F290FB8C
:1018B000F1F5A5F1800501FB12041B3C02D5644241
:1018C000012000E00020DFF890A080460027FA44C5
:1018D000AAF1BE0A0DE0E00709D03246684607EBE0
:1018E00047010AEB810100F04EFB8DE80700641010
:1018F0007F1C002CEFD1184F7F44AC3F18E0E80765
:1019000014D007EB04100DF1180A90E80E008AE8D5
:101910000E00C068F04201D198190890324606A91D
:1019200003A800F030FB03AB83E807006D10641CD4
:10193000002DE4D132466946B8F1000F03A802D069
:1019400000F00DFB01E000F01EFBC9E90001C9F841
:1019500008200AB0BDE8F087E8D5000010B50446BD
:10196000AFF300802046BDE81040FEF7E2BC00283F
:1019700001D006F03ABD704710B5012805D000210E
:1019800003A000F021F8012010BD09A1F8E7000034
:1019900053494752544D454D3A204F7574206F6658
:1019A0002068656170206D656D6F727900000000C0
:1019B0003A2048656170206D656D6F727920636FA4
:1019C000727275707465640070B505460C460A2025
:1019D00000E06D1C06F00BFD35B128780028F8D129
:1019E00002E0641C06F003FD14B120780028F8D151
:1019F000BDE870400A2006F0FABC00004FF0013C40
:101A000050F8042B51F8043B9A4221D1A2EB0C036D
:101A1000934313EACC1317D150F8042B51F8043B2D
:101A20009A4215D1A2EB0C03934313EACC130BD1CA
:101A300050F8042B51F8043B9A4209D1A2EB0C0355
:101A4000934313EACC13DBD04FF00000704700BF84
:101A5000D01A01BAB1FA81F101F0180122FA01F0AD
:101A6000CB40C1F12001DBB2C0B2C01A2CFA01F3A5
:101A7000D11A914311EAC311E6D170475FEA400CD5
:101A800008BF91F0000F4FEA8C234FEAC12243EACE
:101A900051514FEA1C5018BF00F5F0404FEA30009A
:101AA00018BF41F000415FEA6C5C00F02980BCF196
:101AB000FF3F08BF40F080407047130C06BF120480
:101AC0004FF0100C4FF0000C130E04BF12020CF17B
:101AD000080C130F04BF12010CF1040C930F04BF88
:101AE00092000CF1020CD30F04BF52000CF1010C58
:101AF00011464FF00002A0F11F00A0EB0C00704750
:101B000011F0004F08BF704731F000413FF4D5AFEE
:101B10000B0C06BF09044FF0100C4FF0000C0B0E1D
:101B200004BF09020CF1080C0B0F04BF09010CF1F2
:101B3000040C8B0F04BF89000CF1020CCB0F04BF07
:101B400049000CF1010CCCF12003A0EB0C0022FAAF
:101B500003F302FA0CF241EA030100F101007047BD
:101B600020F07F4C80EA030023F07F47ACEB0703B3
:101B700003F57C5300F0004003F1FF032DE9804999
:101B80004FEA154B09B44FEA144325EA0B4E24EAF9
:101B900003480FF2042606EB132749083E785FEA54
:101BA000320203FB0667C7F5000707FB06F64FEA9C
:101BB00054374FEAD64606F1020607FB066CCCF115
:101BC000005C4FEA1C472CEA074C07FB06F40CFBB1
:101BD00006F504EB15464FEA961634BF00204FF089
:101BE00000404FEAD13706FB07FC4FEA1C4C0CFBC8
:101BF0000BF7D21B03FB0CF761EB07010CFB0EF795
:101C0000B0EB074072EB17420CFB08F734BFA2EBB6
:101C10000742B2EB074261EB17414FEA0C444FEA2F
:101C2000910706FB07FC4FEA1C4C0CFB0BF7B0EBD3
:101C3000C74072EB573203FB0CF734BFA2EBC7422D
:101C4000B2EBC74261EB57310CFB0EF7B0EBC700AC
:101C500072EB57720CFB08F734BFA2EBC702B2EB72
:101C6000C70261EB5771039F4FEA816141EA92110C
:101C700004EBCC044FEAD1374FEA826206FB07FC43
:101C800042EA90124FEA80604FEA1C4C0CFB0BF7C3
:101C9000D21B03FB0CF761EB07010CFB0EF7B0EB5B
:101CA000074072EB17420CFB08F734BFA2EB074268
:101CB000B2EB074261EB17414FEA8C554FEA9107AF
:101CC00004EB9C2406FB07FC4FEA1C4C0CFB0BF7B7
:101CD000B0EBC74072EB573203FB0CF734BFA2EBFB
:101CE000C742B2EBC74261EB57310CFB0EF7B0EBCA
:101CF000C70072EB57720CFB08F734BFA2EBC702A8
:101D0000B2EBC70261EB577115EB4C254FEA8161CD
:101D100041EA92114FEA82624FEAD13742EA9012C9
:101D200006FB07FC44F100044FEA80604FEA1C4CBC
:101D30000CFB0BF7D21B03FB0CF761EB07010CFB51
:101D40000EF7B0EB074072EB17420CFB08F734BFFD
:101D5000A2EB0742B2EB074261EB174115EB1C15F2
:101D60004FEA813141EA92414FEA823242EA90429F
:101D70004FEA80304FEA0C7644F1000448EA03430E
:101D80004EEA0B484FF0000EB2EB080C71EB030764
:101D900024BF624639464EEB0E0E4FF0000B001882
:101DA000524149414BEB0B0BB2EB080C71EB0307B3
:101DB0007BF1000B24BF624639464EEB0E0E4FF00E
:101DC000000B0018524149414BEB0B0BB2EB080CD6
:101DD00071EB03077BF1000B24BF624639464EEBE3
:101DE0000E0E51EA020718BF46F0010616EB0E76FA
:101DF00055F1000254F1000103D5BDE88901BDE8A9
:101E00000088BDE88901BDE80048B619524141EBA0
:101E10000101A3F10103704780807F7E7D7C7B7A86
:101E20007978777676757473727171706F6E6E6D86
:101E30006C6C6B6A6A69686867666665646463632C
:101E400062616160605F5F5E5E5D5D5C5C5B5B5AB2
:101E50005A5959585857575656555555545453531F
:101E600052525251515050504F4F4F4E4E4D4D4D7A
:101E70004C4C4C4B4B4B4A4A4A49494948484847C5
:101E80004747474646464545454444444443434303
:101E90004342424242414141002B26D4770021D0A7
:101EA0001CB54FEA370703B44FF010004FF0100194
:101EB0004FF000000FBCBDE810400BF1010BBBF16F
:101EC000010F08BF5FEA170722BF12F1010211F1EB
:101ED00001014FF0004143F1000300F0004043EAEC
:101EE00000007047F9D35708DAE746EA064613F1CF
:101EF000400F4FEA16461FDD13F1200FDFBF1643D8
:101F00000A46002120335B42C8D0C3F1200746EACD
:101F1000064602FA07F74FEA164646EA0706C3F1F5
:101F2000200722FA03F201FA07F721FA03F14FF032
:101F3000000342EA0702B1E746EA020646EA06461D
:101F40004FEA164646EA0106BCBF46EA0646360C8C
:101F50004FF000034FF000024FF000019EE72DE923
:101F6000C048934630B491E8380007C831EA400CC5
:101F700048BF34EA430C03D5FFF7F2FDFFF78CFFAF
:101F8000F0BCBDE800882DE9C048934630B491E824
:101F9000380007C810F0804F08BF13F0804F03D1FE
:101FA00000F005F8FFF778FFF0BCBDE8008820F0EE
:101FB0007F4780EA030023F07F4C07EB0C03A3F577
:101FC0007C5300F00040A3F1FE0392F0000F00F0FC
:101FD000B38095F0000F00F077802DE901494FEABA
:101FE00011404FEA144621EA004800FB06FC24EAAF
:101FF000064708FB06F607FB08F800FB07F718EB97
:1020000006484CEB164C4FEA124B18EB07484FEAC8
:1020100015464CEB174022EA0B4E0BFB06FC25EA5B
:1020200006470EFB06F607FB0EFE0BFB07F71EEB43
:10203000064E4CEB164C4FF000061EEB074E4CEBD9
:10204000174B18EB0B0840F1000018EB0E0B58EB88
:10205000000840F100008F1A4FF000013CBFC94357
:10206000661B14BFB5EB040C00213CBFC943F61B33
:102070004FEA17444EEA8E0E27EA04454FEA1C4702
:1020800004FB07622CEA074C05FB07F70CFB05F67F
:1020900004FB0CFC16EB074642EB174216EB0C4612
:1020A00042EB1C421BEB060658EB0202414146EA9A
:1020B0009E0601D5BDE80189B619524141EB0101E7
:1020C000A3F10103BDE801894FEA14454FEA114726
:1020D00024EA054621EA074C05FB07F406FB07F74F
:1020E0000CFB06F105FB0CFC11EB074144EB17441C
:1020F0004FEA124711EB0C4144EB1C4422EA074C17
:1021000005FB07F206FB07F70CFB06F605FB0CFCCC
:1021100016EB074642EB174216EB0C4642EB1C450A
:102120006A1854F1000148BF7047B619524141EB9B
:102130000101A3F10103704795F0000F37D04FEA7A
:1021400011424FEA144721EA024624EA074C02FBF7
:1021500007F106FB07F70CFB06F402FB0CFC14EB83
:10216000074441EB17414FEA154714EB0C4441EB90
:102170001C4125EA074C02FB07F506FB07F70CFBA1
:1021800006F602FB0CFC16EB074645EB174516EB73
:102190000C4645EB1C42121951F1000148BF704733
:1021A000B619524141EB0101A3F1010370474FEA17
:1021B00014454FEA114724EA054621EA074C05FB7E
:1021C00007F106FB07F70CFB06F24FF0000605FBD4
:1021D0000CFC12EB074241EB174112EB0C4251EBA6
:1021E0001C4148BF7047921841EB0101A3F1010364
:1021F000704700001CB5012400F068F8002201219E
:10220000052008F025FA1549086007F003FE144878
:10221000062100238022CDE9001012A1154808F004
:102220006FFC0446012C02D113A0FEF7EDF91A4809
:10223000082100238A01CDE9001018A11A4808F0EE
:102240005FFC0446012C02D118A0FEF7DDF91E4800
:10225000006807F04BFF07F01FFE1CBD18000020B0
:1022600010000020436F6E74726F6C5F5461736B6B
:1022700000000000F9220008437265617465204384
:102280006F6E74726F6C5F5461736B2073756363F0
:10229000657373210D0A000014000020446F776EEF
:1022A0005F5461736B000000952400084372656100
:1022B000746520446F776E5F5461736B2073756330
:1022C00063657373210D0A000C00002010B504F043
:1022D00071FD07F039FD04F02FF805F017FA05F04D
:1022E0001DFC04F093F800F0FFFB04F0FFFB01F08D
:1022F0004BF810BD00BFFEE708B501243FE0002306
:102300005A1E69461E48006808F0DEF90446012C92
:1023100031D107F07FFD9DF80000052804D101F0C0
:1023200033F80020174908709DF80000012806D1F5
:102330001548007A002802DD06F036FE18E09DF808
:102340000000022806D11048407A122802DA06F06E
:1023500077FE0DE09DF80000032802D107F0B6FBE0
:1023600006E09DF80000042802D11E2007490880DD
:1023700007F092FD03E0214605A004F0E5FCBEE76E
:10238000180000207000002030080020720000209B
:10239000526563656976652071756575652045725E
:1023A000726F723A202564200A0000002DE9F04780
:1023B0000C4617469C46DDF82080D0F80090D9F8EE
:1023C000449009F0404948EA0C4A49EA0A09D0F821
:1023D00000A0CAF84490D0F80090C9F83C70D0F83A
:1023E0000490B9F5403F4ED104F07F4604F47F01DC
:1023F00004F47F42E3B2D0F80890B9F1000F06D19F
:1024000042EA010949EA060949EA030536E0D0F83B
:102410000890B9F1010F04D142EA010949EA030524
:102420002CE0D0F80890B9F1020F09D1C90C920A3A
:10243000DB084FEA421949EAC12949EA03051DE0D0
:10244000D0F80890B9F1030F0CD1F60FC90CD20ADD
:10245000DB084FEA421949EA812949EAC63949EAC3
:1024600003050BE0360F090D120B1B094FEA021989
:1024700049EA012949EA063949EA0305D0F80090FA
:10248000C9F8385003E0D0F80090C9F80C40BDE816
:10249000F087704790B00424002700262625601F8F
:1024A0008149C1F89800FF22282101A8FEF7FEFA11
:1024B000F9E07E480078002806D17D48807A281A05
:1024C000012802DD06F028FDE9E0042412E0784846
:1024D000817A0F30005D081A281A734951F82000DC
:1024E00073490B310A5D4FF00041D140084008B1FB
:1024F000012704E0201EA4F101014CB2E7D100BF86
:10250000002F7DD00027C8206A49088004241AE0E3
:102510006748817A0F30005D091A681E401A6249C7
:1025200051F8200062490B310A5D4FF00041D14063
:1025300008435F498A7A0F31095D521A691E891A68
:10254000594A42F82100201EA4F101014CB2DFD10A
:10255000272410E0544850F8240010F5005F03D100
:1025600001A98C55701CC6B24F4850F8240010B910
:10257000601CC5B204E0201EA4F101014CB2E9D1F7
:1025800000BFB4F1FF3F71D1002E6FD10120474948
:1025900008704948028849A10BA8FEF741F848484D
:1025A00004F0BAFB6FF07F009B234FF4BE72A021B2
:1025B0000090D22004F0E8F902209B234FF4BE7271
:1025C000A0210090D22004F053F93D4804F0A4FB70
:1025D0003CA2AA2140F2431003F08EFF00903CA2DF
:1025E000C32140F2331003F087FF00900BA8FEF7E1
:1025F000C7F900EB0010C0F54870C0F34F0800E0C9
:1026000049E00BAADC21404603F076FF00902C48FD
:1026100004F082FB31483223BC22FF2100904FF4AA
:10262000997004F0B1F903203223BC22FF210090FD
:102630004FF4997004F01CF94FF07F4004F06CFBEC
:1026400027A24FF486714FF4AA7003F055FF009053
:1026500000201949088026259C211348FEF750FACE
:10266000701E1149C1F8980019E0FFE766B12A46CB
:1026700001A9304607F04CFAA819C5B2FF2228215B
:1026800001A8FEF713FA0026094804F02BFF0848BA
:1026900000F02AF803E006F03FFC681CC5B20548CC
:1026A000008807F0E7FC04E7940700207000002092
:1026B00030080020720000206E0000202564000019
:1026C0000000FFFF47414D45204F56455200000096
:1026D000596F75722053636F72653A0000D7FFFF20
:1026E000524553544152540010B504464FF07F40B8
:1026F00004F012FBE17BE07A626805F09AFE217C2F
:10270000207B626805F095FE617C607B626805F065
:1027100090FEA17CA07B626805F08BFE10BD0000DE
:1027200010B50648006800F4005028B100F0D8FB4E
:102730004FF400500149086010BD0000143C0140F6
:1027400072B600BFFEE702460868B0B9D1E90103DE
:102750001843CB6818430B6918434B6918438B69BE
:102760001843CB6918430B6A18434B6A1843136824
:102770006FF30E031843106019E0D1E90703184303
:102780004B6A1843136823F4F84318431060D1E9E7
:1027900001031843CB6818430B6918434B6918436E
:1027A0008B69184353686FF30E0318435060002081
:1027B00070470246506943F6FE73984340EA410071
:1027C0005061002070472DE9F04105460C46164641
:1027D0000027D4E900010843A168491E40EA4110DE
:1027E000E16840EA412029696FF315010843286137
:1027F00001F022FA07460AE0701C40B126B101F050
:102800001BFAC01BB04202D90320BDE8F081A869C1
:1028100000F020002028EFD00020F6E730B5034676
:10282000FAB90868401E4C68641E40EA04148868BF
:10283000401E44EA0024C868401E44EA0034088A66
:10284000401E44EA0044888A401E44EA0054087E40
:10285000401E44EA00609C6804F070442043986085
:1028600022E0C868401E0403888A401E44EA0050E3
:102870009C680E4D2C40204398600868401E4C68B0
:10288000641E40EA04148868401E44EA0024088A52
:10289000401E44EA0044087E401E44EA0060DC68B2
:1028A00004F070442043D860002030BDFF0F0FFFBC
:1028B0002DE9FC4100200090019000244FF4805548
:1028C0002E46012780208DF8000048208DF8010059
:1028D00006226946BA2000F04FF80446002C02DABE
:1028E0000020BDE8FC819DF802009DF8031000EB7C
:1028F000012085B29DF804009DF8051000EB012031
:1029000086B280208DF800004D208DF80100032252
:102910006946BA2000F030F80446002C01DA0020A5
:10292000DFE79DF8020000F003073B4632462946E8
:1029300002A0FDF769FE0120D3E700003C3C2D47D3
:1029400054502D494E464F2D3E3E20585F4D415824
:10295000203D2025642C20595F4D4158203D2025E5
:10296000642C2054524947474552203D2030782559
:102970003032780A000000002DE9F04186B00446AC
:102980000D4690464FF0FF37002600BF00BF0020E5
:10299000ADF802008DF800400220ADF80400029569
:1029A0000121ADF80E108DF80C40A8F1020081B2A3
:1029B000ADF81010A81C059008E00221684603F04D
:1029C000DFFA0746022F00D102E0761C052EF4DB69
:1029D00000BF052E02DB03A0FDF716FE384606B049
:1029E000BDE8F0813C3C2D4754502D4552524F528A
:1029F0002D3E3E204932432052656164204572726B
:102A00006F720A0038B50E480068009000256C1EF1
:102A100000BF00BF0DE003226946BA20FFF7ACFFFC
:102A200044B2002C01DD204638BD294605A0FDF743
:102A3000EBFD2846691CCDB20528ECDB2046F3E708
:102A400078ED00083C3C2D4754502D4552524F52D2
:102A50002D3E3E20475450206932632074657374C4
:102A6000206661696C65642074696D652025642E3B
:102A70000A0000002DE9FE4305460E4617464FF0BA
:102A8000FF38002400BF00BF0020ADF802008DF821
:102A90000050B8B2ADF80400029609E00121684682
:102AA00003F06EFA8046B8F1010F00D102E0641C19
:102AB000052CF3DB00BF052C02DB03A0FDF7A4FD12
:102AC0004046BDE8FE8300003C3C2D4754502D4558
:102AD00052524F522D3E3E2049324320526561648E
:102AE000204572726F720A002DE9E04F4FF0FF3AF5
:102AF0000027BB46B82600BF00BF03F039FAFFF736
:102B000081FF8246BAF1000F05DA40A0FDF77CFD97
:102B10005046BDE8E08F00F0AFF84748007820B994
:102B2000DFF818814FF0BA0910E043480078012817
:102B300004D1DFF80C814FF0BA0907E03E48007875
:102B4000022803D1DFF8FC804FF0EF09F021A01C30
:102B5000FDF7B4FF4A464146A01CFDF730FF36485A
:102B60000078012802D03448007888B9022503E0B3
:102B7000605D3844C7B26D1CB01C8542F8DBF84379
:102B8000401CC1B2B01C21540121F01C215421E091
:102B90002948007802281DD1022507E0681C205C26
:102BA000615D00EB01203844C7B2AD1C701EA84225
:102BB000F4DC7842C7B200BF3A4640F2AE2122A010
:102BC000FDF722FD00BF0021701E2154A7550121F1
:102BD000701C21544FF0000B0BE0321D2146BA202F
:102BE000FFF748FF8246BAF1010F00D104E00BF174
:102BF000010BBBF1050FF0DB00BF0A2000F0FAFE6D
:102C000002F0D6FFFFF754FE002082E73C3C2D4740
:102C100054502D4552524F522D3E3E2049324320B2
:102C2000636F6D6D756E69636174696F6E20455277
:102C3000524F52210A000000C603002074000020F9
:102C40002E010020E80100203C3C2D4754502D442B
:102C5000454255472D3E3E205B25645D436F6E66C1
:102C6000696720636865636B73756D3A20307825FA
:102C70003034580A0000000010B586B04FF0FF3421
:102C8000634903C9CDE9040100BF00BF082204A9BC
:102C9000BA20FFF771FE0446002C05DA5DA0FDF7AF
:102CA000B3FC204606B010BD9DF8120039285BD158
:102CB0009DF8120039281CD19DF81300312818D135
:102CC0009DF81400312814D19DF816009DF81710B6
:102CD000CDE900109DF814309DF813209DF81210D6
:102CE00057A0FDF791FC0120614908706149087007
:102CF0008BE09DF81200392823D19DF8130031286C
:102D00001FD19DF8140035281BD19DF815003728D8
:102D100017D19DF816009DF817109DF81520CDE9E4
:102D2000002102909DF814309DF813209DF8121098
:102D300051A0FDF769FC00204D4908704D4908700D
:102D400063E09DF816109DF817009DF81520CDE959
:102D5000002002919DF814309DF813209DF8121068
:102D600051A0FDF751FC50E09DF8120035283AD1F2
:102D70009DF81200352823D19DF8130036281FD165
:102D80009DF8140038281BD19DF81500382817D15C
:102D90009DF816009DF817109DF81520CDE900212B
:102DA00002909DF814309DF813209DF8121032A067
:102DB000FDF72AFC02202E4908702E49087024E0F5
:102DC0009DF816009DF817109DF81520CDE90021FB
:102DD00002909DF814309DF813209DF8121032A037
:102DE000FDF712FC11E09DF816009DF817109DF8F4
:102DF0001520CDE9002102909DF814309DF8132094
:102E00009DF8121028A0FDF7FFFB20464AE70000BE
:102E100060ED00083C3C2D4754502D4552524F5216
:102E20002D3E3E20475450207265616420766572C5
:102E300073696F6E206661696C65640A000000004A
:102E40003C3C2D4754502D494E464F2D3E3E204987
:102E500043312056657273696F6E3A20256325638E
:102E600025635F25303278253032780A0000000073
:102E7000C6030020680000203C3C2D4754502D49DB
:102E80004E464F2D3E3E20494332205665727369AF
:102E90006F6E3A2025632563256325635F253032F5
:102EA00078253032780A00003C3C2D4754502D499B
:102EB0004E464F2D3E3E20556E6B6E6F776E20490D
:102EC000432056657273696F6E3A2025632563252A
:102ED0006325635F25303278253032780A000000A0
:102EE00010B500BF00BF04F0CDFE10BD2DE9FC41C0
:102EF00006460C4615461F460020019020B28C491C
:102F000021F8160028B28B4921F816008A4800786B
:102F100000287DD1894803F0FFFE322C28DB962C57
:102F200026DCC82D24DBB5F5967F21DC84480078AB
:102F300000281CD170B283490870012080490870B4
:102F4000814878231A46BE210090282003F01CFDFA
:102F5000032078231A46BE210090282003F088FC25
:102F6000002301AA76497948006807F0EDFCCCE01F
:102F700040F28A2084422DDB40F2EE20844229DC9C
:102F8000C82D27DBB5F5967F24DC6D4840780028F6
:102F9000EDD170B26B4948700220694948706A48A7
:102FA00078231A46BE2100904FF4207003F0ECFC09
:102FB000032078231A46BE2100904FF4207003F0BE
:102FC00057FC002301AA5E49491C6048006807F0CD
:102FD000BBFC9AE040F28A20844232DB40F2EE20D1
:102FE00084422EDCB5F5AF7F2BDBB5F5E17F28DC25
:102FF00053488078002823D170B25249887003204A
:103000004F498870524878231A464FF4AA7100E05D
:1030100046E000904FF4207003F0B6FC03207823C4
:103020001A464FF4AA7100904FF4207003F020FC70
:10303000002301AA4249891C4448006807F084FC27
:1030400063E0322C61DB962C5FDCB5F5AF7F5CDB97
:10305000B5F5E17F59DC3A48C078002855D170B207
:103060003849C87004203649C8703A4878231A464F
:103070004FF4AA710090282003F086FC03207823E7
:103080001A464FF4AA710090282003F0F1FB0023A8
:1030900001AA2B49C91C2D48006807F055FC34E0F3
:1030A000B4F5997F31DBB4F5F77F2EDCFF2D2CDBF7
:1030B000B5F5997F29DA234890F90400B0F1FF3F74
:1030C00023D170B21F4908711C4803F025FE1E4829
:1030D0003C23D022FA2100904FF4947003F054FC6A
:1030E00003203C23D022FA2100904FF4947003F087
:1030F000BFFB4FF07F4003F00FFE17A24FF4867125
:103100004FF4AA7003F0F8F900904FF07F4003F0FD
:1031100003FE019848B1019838B14FF08050104932
:103120000860BFF34F8FBFF36F8FBDE8FC810000D5
:10313000C0040020CA040020700000200000FFFF2F
:10314000D9040020D404002000D7FFFF180000207D
:10315000FF8080FFEEB2EEFF5245535441525400BF
:1031600004ED00E01CB50446002001907948007889
:1031700000287DD1784803F0CFFD784890F9000011
:10318000A0421DD1FF2075490870000679231A4618
:10319000BE210090282003F0F7FB714864231A46F3
:1031A000C8210090322003F0EFFB032064231A466D
:1031B000C8210090322003F05BFB002069490870B1
:1031C000664890F90100A04220D1FF206349487071
:1031D000000679231A46BE2100904FF4207003F0B8
:1031E000D3FB5F4864231A46C821009040F28A202E
:1031F00003F0CAFB032064231A46C821009040F262
:103200008A2003F035FB002056494870534890F956
:103210000200A04223D1FF20504988700006792384
:103220001A464FF4AA7100904FF4207003F0ACFBE3
:103230004D4864231A464FF4AF71009040F28A2043
:1032400003F0A2FB032064231A464FF4AF710090F1
:1032500040F28A2003F00CFB0020424988703F486E
:1032600090F90300A04268D1FF203C49C87000E0FB
:103270001EE0000679231A464FF4AA710090282018
:1032800003F082FB394864231A464FF4AF71009073
:10329000322003F079FB032064231A464FF4AF7108
:1032A0000090322003F0E4FA00202E49C87044E078
:1032B0002A4890F90400A0423FD1FF202749087115
:1032C000254803F029FD6FF07F003C23D022FA212E
:1032D00000904FF4947003F057FB21483223BC2236
:1032E000FF2100904FF4997003F04EFB032032232E
:1032F000BC22FF2100904FF4997003F0B9FA4FF00F
:103300007F4003F009FD1AA24FF486714FF4AA70B2
:1033100003F0F2F80090002301AA1249091D164893
:10332000006807F011FB019838B14FF08050134945
:103330000860BFF34F8FBFF36F8F4FF07F4003F0F4
:10334000EBFC4FF0FF300E4921F814000D4921F835
:1033500014001CBD700000200000FFFFD4040020FA
:1033600000D7FFFFD9040020FF8080FFEEB2EEFF00
:1033700052455354415254001800002004ED00E01F
:10338000C0040020CA04002008B50021084603F04C
:10339000CFFCFF21012003F0CBFC012003F090FCC7
:1033A0004FF07F4003F012F86FF0FF0003F0B4FC21
:1033B00001204FF4E773E822092100904FF48E704A
:1033C00003F056FA314803F0A7FC4FF07F4003F0BA
:1033D0007DFC2F4864231A46C8210090322003F058
:1033E000D3FA032064231A46C8210090322003F048
:1033F0003FFA274864231A46C821009040F28A20E9
:1034000003F0C2FA032064231A46C821009040F258
:103410008A2003F02DFA1F4864231A464FF4AF7137
:10342000009040F28A2003F0AFFA032064231A468A
:103430004FF4AF71009040F28A2003F019FA164859
:1034400064231A464FF4AF710090322003F09CFAC7
:10345000032064231A464FF4AF710090322003F02A
:1034600007FA0EA23C214FF40C7003F045F80090CF
:103470004FF07F4003F050FC04F012F90A4804F0CA
:1034800031F80948FFF730F908BD00000000FFFFE0
:1034900000D7FFFFFF8080FFEEB2EEFF53636F7235
:1034A000653A2030000000003008002070B5044666
:1034B0002068006820F00500001D2168086000F009
:1034C000BBFB054613E000F0B7FB401BB0F57A7F6D
:1034D0000DD9E06B40F02000E063032084F8390050
:1034E00000BF002084F8380000BF032070BD2068B2
:1034F000006800F001000028E5D12068006820F491
:103500000C5021680860012084F8390000BF0020B9
:1035100084F8380000BF00BFE8E72DE9F041044619
:103520000E46206800F124072068006840F004007F
:1035300021680860012E02D1206800F11C0700F00C
:103540007BFB054614E000F077FB401BB0F57A7F6B
:103550000ED9E06B40F02000E063032084F83900CE
:1035600000BF002084F8380000BF0320BDE8F081D0
:10357000386800F020000028E5D12068006820F4B9
:10358000645021680860012084F8390000BF0020E1
:1035900084F8380000BF00BFE8E7000070B50246BD
:1035A0000C465068B0F5403F02D0506800B100BFF3
:1035B00000BF92F83800012801D1022070BD01201F
:1035C00082F8380000BF022082F8390002F11800AA
:1035D00000EB04110E89486840EA0643214D486813
:1035E0000A2802D04868092804D1C86800F07F4042
:1035F000034302E0087B43EA0063A4B91068406A11
:10360000A84318431668706208681668B061486875
:103610000A2802D04868092819D1C86820F07F40DC
:103620001668B06213E01068C069A84318431668B2
:10363000F06108681668306148680A2802D0486856
:10364000092804D1C86820F07F4016683062012044
:1036500082F8390000BF002082F8380000BF00BFA8
:10366000ACE700000F0003FF10B504460CB90120C1
:1036700010BD2448006800F4000020B320680068F2
:1036800000F0010028B12046FFF710FFD8B101205B
:10369000EEE72068406A00F02000202806D10021D3
:1036A0002046FFF73AFF70B10120E1E72068C069CA
:1036B00000F02000202806D101212046FFF72DFF31
:1036C00008B10120D4E70020216808603F2021686C
:1036D0008860002021680861216888612168C861CC
:1036E0002168486221684863204600F03DF80020C8
:1036F000E06384F8390000BF84F8380000BF00BFE1
:10370000B6E700003038024010B504460CB901207D
:1037100010BD94F8390028B9002084F838002046FC
:1037200000F023F8022084F839002068006820F4B3
:10373000403061680843216808602068406B20F0D1
:103740000700A1680843216848632068006C6FF394
:103750000D00E1680843216808640020E06301204F
:1037600084F839000020D3E770477047F8B5044665
:103770000D46002000902068006800F0010000283D
:1037800043D000F059FA064639E0206840680090BE
:10379000009800F02100E0B1009800F0200018B17E
:1037A000E06B40F00200E063009800F0010018B107
:1037B000E06B40F00100E063212021688860042074
:1037C00084F8390000BF002084F8380000BF0120D1
:1037D000F8BD681C98B100F02FFA801BA84200D8F1
:1037E0006DB9E06B40F02000E063032084F83900FD
:1037F00000BF002084F8380000BF0320E8E72068FD
:10380000406800F002000028BFD02068C06900F0C6
:1038100020072068406A00F020000743002F4BD0AB
:1038200000F00AFA064641E02068406800900098DF
:1038300000F0290020B3009800F0080018B1E06BF8
:1038400040F00400E063009800F0200018B1E06B45
:1038500040F00200E063009800F0010018B1E06B56
:1038600040F00100E063292021688860042084F88A
:10387000390000BF002084F8380000BF0120A7E70E
:10388000681C98B100F0D8F9801BA84200D86DB927
:10389000E06B40F02000E063032084F8390000BFB3
:1038A000002084F8380000BF032091E720684068BA
:1038B00000F010000028B7D0122021688860012095
:1038C00084F8390000BF002084F8380000BF00BF32
:1038D0007EE72DE9F84304460D4616461F46DDF8FF
:1038E000208000BF94F83800012802D10220BDE8F2
:1038F000F883012084F8380000BF022084F83900E2
:103900003B46324629462046CDF80080FEF74EFD64
:103910002068006840F00100216808600020E6E7A8
:1039200070B50446A56D00F087F9064694F8350099
:10393000022808D08020606500BF002084F8340091
:1039400000BF012070BD2068006820F016002168CB
:1039500008602068406920F0800021684861206C80
:1039600008B9A06C28B12068006820F00800216820
:1039700008602068006820F001002168086010E0FD
:1039800000F05AF9801B05280BD920206065032020
:1039900084F8350000BF002084F8340000BF032005
:1039A000D0E72068006800F001000028E8D194F812
:1039B0005C103F208840A860012084F8350000BFDB
:1039C000002084F8340000BF00BFBBE7014691F837
:1039D0003500022803D0802048650120704705206B
:1039E00081F835000868006820F001000A6810605E
:1039F0000020F3E770B5044600F01EF906462546A0
:103A0000681C10B104480078054400BF00F014F9A8
:103A1000801BA842FAD370BD08000020F8B502460A
:103A20000B460025002400200021E0E0012606FAD4
:103A300001F51E6806EA0504AC4274D11E7906F051
:103A40000306012E04D01E7906F00306022E13D1C0
:103A500090684F000326BE40B0434F00DE68BE4072
:103A600030439060506801268E40B0431E79C6F303
:103A700000168E40304350601E7906F00306032E78
:103A800009D0D0684F000326BE40B0434F009E6867
:103A9000BE403043D0601E7906F00306022E13D1DB
:103AA000CF0802F1200656F827004E07F70E0F2622
:103AB000BE40B0434F07FF0E1E69BE403043CF08E3
:103AC00002F1200646F8270010684F000326BE408A
:103AD000B0431E7906F003064F00BE40304310602D
:103AE0005E6806F44036002E1DD000BF002600960A
:103AF000414E366846F480463F4F3E603E4636684B
:103B000006F48046009600BF00BF3C4E8F0856F872
:103B100027008E07370F0F26BE40B043384EB24203
:103B200002D100262EE061E0364EB24201D10126DC
:103B300028E0354EB24201D1022623E0334EB24294
:103B400001D103261EE0324EB24201D1042619E013
:103B5000304EB24201D1052614E02F4EB24201D1BF
:103B600006260FE02D4EB24201D107260AE02C4E68
:103B7000B24201D1082605E02A4EB24201D10926FF
:103B800000E00A268F073F0FBE4030431B4E8F08D0
:103B900046F82700244E3068A0435E6806F480167D
:103BA00006B12043204E3060361D3068A0435E6869
:103BB00006F4001606B120431B4E361D30601A4E27
:103BC000361F3068A0435E6806F4003606B1204315
:103BD000154E361F3060361F3068A0435E6806F40D
:103BE000803606B12043104E083E3060491C102933
:103BF000FFF41CAFF8BD0000443802400838014013
:103C0000000002400004024000080240000C024094
:103C1000001002400014024000180240001C024044
:103C20000020024000240240083C01400AB18161AA
:103C300001E00B0483617047014800687047000091
:103C400000000020024692F83D0020281ED12420CA
:103C500082F83D001068006820F0010013681860C9
:103C60001068406A20F01000136858621068406ABB
:103C70000843136858621068006840F00100136838
:103C80001860202082F83D00002070470220FCE7E9
:103C900070B504460CB9012070BD94F83D0028B9F8
:103CA000002084F83C00204600F018FB242084F813
:103CB0003D002068006820F001002168086020684D
:103CC000006840F40040216808602068006820F423
:103CD00000402168086000F007FF05465C49606805
:103CE000884206D85B48854201D2012007E00020C7
:103CF00005E05948854201D2012000E0002001285A
:103D000000D1C9E75548B5FBF0F62068406820F0BF
:103D10003F003043216848604D496068884201D8BF
:103D2000701C07E04FF4967070434FF47A71B0FB4B
:103D3000F1F0401C2168096A21F03F010843216825
:103D4000086243496068884214D8681E6168490067
:103D5000B0FBF1F0401CC0F30B00042801D204209A
:103D60003DE0681E61684900B0FBF1F0401CC0F303
:103D70000B0034E0A06838B9681E616801EB4101AE
:103D8000B0FBF1F0401C0AE0681E616801EBC10263
:103D900002EB0111B0FBF1F0401C40F48040C0F395
:103DA0000B0008B901201AE0A06848B9681E6168D4
:103DB00001EB4101B0FBF1F0401CC0F30B000CE043
:103DC000681E616801EBC10202EB0111B0FBF1F06A
:103DD000401CC0F30B0040F4804040F400402168D8
:103DE000C9694CF6FF72914308432168C861D4E960
:103DF000070108432168096821F0C00108432168D0
:103E00000860D4E9031008432168896848F2FF324A
:103E10009143084321688860D4E90501084321687B
:103E2000C96821F0FF0108432168C8602068006864
:103E300040F001002168086000202064202084F800
:103E40003D000020206384F83E0000BF24E700000E
:103E5000A086010080841E0000093D0040420F0042
:103E60002DE9F8430446894617469846089EFFF711
:103E7000E3FE054694F83D0020287DD11923012258
:103E8000B7492046009502F0EDF810B10220BDE8D8
:103E9000F88300BF94F83C00012801D10220F6E726
:103EA000012084F83C0000BF2068006800F0010099
:103EB00028B92068006840F0010021680860206887
:103EC000006820F4006021680860222084F83D002A
:103ED000102084F83E00002020646762A4F82A8045
:103EE000608D20859F48E0622B4632464946204639
:103EF00001F0ACFE08B10120C9E7208D88B900BFF0
:103F0000002000902068406900902068806900903F
:103F100000BF00BF2068006840F40070216808609E
:103F200047E0208D012817D12068006820F48060C8
:103F30002168086000BF0020009020684069009060
:103F400020688069009000BF00BF2068006840F4CE
:103F50000070216808602CE0208D022818D12068AC
:103F6000006820F48060216808602068006840F4E0
:103F700000602168086000E0EFE000BF00200090D2
:103F800020684069009020688069009000BF10E0C0
:103F90002068006840F480602168086000BF00204D
:103FA000009020684069009020688069009000BF00
:103FB00000BFC3E0208D03287ED8208D012815D1B5
:103FC0002A463146204602F029F908B101205EE771
:103FD00020680069616A0870606A401C6062208D18
:103FE000401E2085608D401E6085A7E0208D022840
:103FF0002AD1334600225C492046009502F032F86F
:1040000008B1012043E72068006840F4007021688F
:10401000086020680069616A0870606A401C60621C
:10402000208D401E2085608D401E608520680069BF
:10403000616A0870606A401C6062208D401E2085A5
:10404000608D401E608579E0334600224649204657
:10405000009502F007F808B1012018E72068006811
:1040600020F480602168086020680069616A087037
:10407000606A401C6062208D401E2085608D401E5D
:1040800060853346002238492046009501F0EAFF5A
:1040900008B10120FBE62068006840F40070216848
:1040A000086020680069616A0870606A401C60628C
:1040B000208D401E208500E010E0608D401E608550
:1040C00020680069616A0870606A401C6062208D27
:1040D000401E2085608D401E60852FE02A463146B7
:1040E000204602F09BF808B10120D0E62068006964
:1040F000616A0870606A401C6062208D401E2085E5
:10410000608D401E608520684069C0F38000A8B1C2
:10411000208D032805D12068006820F48060216884
:10412000086020680069616A0870606A401C60620B
:10413000208D401E2085608D401E6085208D0028CA
:104140007FF438AF202084F83D00002084F83E0042
:1041500000BF84F83C0000BF99E6022097E600000B
:10416000020010000000FFFF040001002DE9F843E9
:104170000446894616461F46DDF82080FFF75CFDA1
:10418000054694F83D0020287ED11923012251498B
:104190002046009501F066FF10B10220BDE8F883CB
:1041A00000BF94F83C00012801D10220F6E701206D
:1041B00084F83C0000BF2068006800F0010028B9C6
:1041C0002068006840F001002168086020680068ED
:1041D00020F4006021680860212084F83D00102050
:1041E00084F83E000020206466626785608D20852B
:1041F0003948E0622B4642464946204601F0C2FD5E
:1042000008B10120CAE700BF002000902068406983
:10421000009020688069009000BF00BF44E02A46FB
:104220004146204602F03FF850B1206C042805D1E9
:104230002068006840F40070216808600120ADE744
:10424000606A007821680861606A401C6062608D65
:10425000401E6085208D401E208520684069C0F387
:10426000800070B1208D60B1606A007821680861BB
:10427000606A401C6062608D401E6085208D401E1B
:1042800020852A46414600E022E0204601F0B7FEA4
:1042900050B1206C042805D12068006840F40070FB
:1042A00021680860012079E7208D0028B7D12068B7
:1042B000006840F4007021680860202084F83D0008
:1042C000002084F83E0000BF84F83C0000BF65E792
:1042D000022063E7020010000000FFFF10B5044653
:1042E00001F028FC10BD000003480068034909786C
:1042F00008440149086070470000002008000020C1
:1043000070B504460E4800784FF47A71B1FBF0F0B6
:104310000C490968B1FBF0F5284601F05DF808B1D9
:10432000012070BD102C07D200222146501E00F043
:104330000CF90548046001E00120F2E70020F0E7F5
:1043400008000020E80400200400002070B50446A6
:104350000E46154600BF94F8A000012801D10220A6
:1043600070BD012084F8A00000BF022084F8A100E5
:1043700005EB850101EBC50204F1380101EB820078
:1043800034223146FCF760FB2A463146204602F0D3
:104390009DFF01202168486284F8A10000BF002031
:1043A00084F8A00000BF00BFDAE7000070B5044643
:1043B0000CB9012070BD94F8A10028B9002084F840
:1043C000A000204600F07EF8022084F8A1002068BA
:1043D000806920F0704021688861D4E901010843B8
:1043E000E168084321690843216889690843216815
:1043F0008861206880683249084021688860A08A06
:10440000050420688068A169294308432168886001
:104410002068C0682A4908402168C860A08B05044C
:104420002068C068216A294308432168C860206861
:1044300000692349084021680861A08C05042068B0
:104440000069A16A2943084321680861206840691E
:104450001B49084021684861A08D05042068406917
:10446000216B294308432168486194F8350005020F
:1044700094F8360006042068C06A00F07F40216886
:10448000C86246EA050094F8341008432168C96AF6
:1044900008432168C8622068406B40F0060021682C
:1044A00048632068806940F001002168886100202D
:1044B000C4F8A400012084F8A10000207AE70000DD
:1044C00000F800F070472DE9F04104460E4617460B
:1044D00000BF94F8A000012802D10220BDE8F081BD
:1044E000012084F8A00000BF022084F8A10007EB9F
:1044F000870000EBC70104F1380000EB81056E6115
:104500003A462946204602F0E1FE01202168486231
:1045100084F8A10000BF002084F8A00000BF00BF05
:10452000DCE70146084600280DDB00BF00BF00F0B5
:104530001F0301229A4043099B0003F1E023C3F8C3
:10454000002100BF00BF00BF70472DE9F05F80462B
:104550000D461646002703F025FF074639462A4632
:10456000334601F00700C0F1070ABAF1040F02D97F
:104570004FF0040A01E0C0F1070AD14600F1040A35
:10458000BAF1070F02D24FF0000A01E0A0F1030ACE
:10459000D4464FF0010A0AFA09FAAAF1010A0AEA16
:1045A000020A0AFA0CFA4FF0010B0BFA0CFBABF102
:1045B000010B0BEA030B4AEA0B042146404603F0C9
:1045C000F9FEBDE8F09F000038B5002400BF0020D0
:1045D00000901D48006840F080501B490860084664
:1045E000006800F08050009000BF00BF0120174914
:1045F0000864FFF721FB044607E0FFF71DFB001BE3
:10460000B0F57A7F01D9032038BD1148406800F425
:104610008030B0F5803FF0D101200C494864FFF7AD
:104620000BFB044607E0FFF707FB001BB0F57A7FA2
:1046300001D90320E8E70648406800F40030B0F5EF
:10464000003FF0D10020DFE74038024000000E427A
:1046500000700040F8B5044600250026207800F0E0
:10466000010048B9207800F00200022804D0207828
:1046700000F04000402862D10020B1498866FFF771
:10468000DBFA054606E0FFF7D7FA401B022801D9FE
:104690000320F8BDAB480068C0F3C0600028F2D129
:1046A000207800F0010038B160688101207A41EA89
:1046B0000070A44984310860207800F002000228CC
:1046C00019D1A04884300068C0F302766068810187
:1046D000207B41EA006040EA06709A498431086014
:1046E00098488C30006820F01F00E169491E08439B
:1046F00094498C310860207800F0400040280AD1AD
:1047000060688101207B41EA0061207A41EA007003
:104710008C4984310860012089498866FFF78CFA4A
:10472000054606E0FFF788FA401B022801D903205E
:10473000AFE784480068C0F3C0600028F2D020785A
:1047400000F00400042804D0207800F008000828B5
:1047500063D100207A490867FFF76EFA054606E044
:10476000FFF76AFA401B022801D9032091E7754838
:104770000068C0F340700028F2D1207800F00400F7
:10478000042819D16F4888300068C0F30276206988
:104790008101207D41EA006040EA06706949883164
:1047A0000860081D006820F4F851206A401E41EAA4
:1047B000002064498C310860207800F00800082847
:1047C00017D1604888300068C0F303662069800113
:1047D00040EA0661207E41EA00705A49883108604B
:1047E000081D006820F44030616A084355498C3147
:1047F0000860012052490867FFF71EFA054606E0E7
:10480000FFF71AFA401B022801D9032041E74D485F
:104810000068C0F340700028F2D0207800F020003B
:1048200020287DD100BF002000904648403000681D
:1048300040F080504349403108600846006800F06D
:104840008050009000BF00BF3F48006840F4807077
:104850003D490860FFF7F0F9054606E0FFF7ECF97F
:10486000401B022801D9032013E73748006800F4F1
:1048700080700028F2D033487030006800F4407631
:104880004EB3208D00F44070B04224D02D487030DB
:10489000006820F4407601202C4908600020086060
:1048A000284870300660006800F0010098B1FFF7FA
:1048B000C3F9054608E0FFF7BFF9401B41F2883114
:1048C000884201D90320E4E61E4870300068C0F336
:1048D00040000028EFD000BF208D00F44070B0F5FC
:1048E000407F0CD117480830006820F4F810184AAF
:1048F000A16A1140084313490831086007E01148D4
:104900000830006820F4F8100E49083108600D489E
:1049100070300068218DC1F30B010843094900E0A4
:1049200002E07031086000BF207800F0100010280D
:1049300003D194F82C00074908600020A9E6000084
:10494000000047420038024000700040400E4742DD
:10495000FFFCFF0FE011474270B504460D460CB94D
:10496000012070BD5848006800F00F00A84209D22D
:1049700055490D700846006800F00F00A84201D0AC
:104980000120EEE7207800F0020002281DD12078F7
:1049900000F00400042805D14C48006840F4E050C1
:1049A0004A490860207800F00800082805D14748E7
:1049B000006840F46040454908604448006820F0C1
:1049C000F000A168084341490860207800F0010028
:1049D000A8B36068012807D13C4808380068C0F3D4
:1049E0004040B8B90120BCE76068022802D0606886
:1049F000032807D1354808380068C0F3406048B93B
:104A00000120AEE7314808380068C0F3400008B91B
:104A10000120A6E72D48006820F0030061680843E4
:104A20002A490860FFF708F9064609E0FFF704F98C
:104A3000801B41F28831884202D9032091E707E0C8
:104A40002248006800F00C006168B0EB810FEDD1E6
:104A50001D48006800F00F00A84209D91A490D70DE
:104A60000846006800F00F00A84201D0012078E756
:104A7000207800F00400042807D11448006820F4CE
:104A8000E050E168084311490860207800F0080010
:104A9000082808D10D48006820F46040216940EAE8
:104AA000C1000A49086000F03FF808490968C1F3ED
:104AB0000311074A515CC84006490860064800686F
:104AC000FFF71EFC00204CE7003C02400838024083
:104AD0007BED0008E8040020040000200148006885
:104AE00070470000E804002000B5FFF7F7FF044915
:104AF0000968C1F38221034A515CC84000BD00002F
:104B0000083802408BED000800B5FFF7E7FF0449C5
:104B10000968C1F34231034A515CC84000BD00003E
:104B2000083802408BED00082DE9F04700240025ED
:104B30000026A1462548006800F00C0020B104289A
:104B400005D008283AD105E0DFF8849039E0DFF895
:104B5000849036E01D48001F006800F03F041B48A9
:104B6000001F006800F4800078B11A481749091F37
:104B70000968C1F38811A0FB017001462246002399
:104B80003846FBF7B0FC05460EE011480F49091FF7
:104B90000968C1F38811A0FB017001462246002379
:104BA0003846FBF7A0FC05460848001F0068C0F324
:104BB0000140401C4600B5FBF6F902E0DFF810901A
:104BC00000BF00BF4846BDE8F0870000083802403B
:104BD0000024F40040787D01F8B504460CB90120AA
:104BE000F8BD207800F00100002874D0F948006872
:104BF00000F00C0004280DD0F648006800F00C000E
:104C0000082813D1F348001F006800F48000B0F5B5
:104C1000800F0BD1EF4808380068C0F340400028EF
:104C200059D06068002856D10120D9E700BF6068DC
:104C3000B0F5803F08D1E7480838006840F480307C
:104C4000E449083908601EE06068B0F5A02F0DD176
:104C5000E0480838006840F48020DE4908390860E0
:104C60000846006840F4803008600CE0D9480838F5
:104C7000006820F48030D749083908600846006889
:104C800020F48020086000BF606890B1FEF7D4FF78
:104C9000054606E0FEF7D0FF401B642801D903203B
:104CA0009EE7CC4808380068C0F340400028F1D0A7
:104CB00011E0FEF7C1FF054606E0FEF7BDFF401B11
:104CC000642801D903208BE7C24808380068C0F384
:104CD00040400028F1D1207800F0020002285FD186
:104CE000BC48006800F00C0058B1BA48006800F0F9
:104CF0000C0008281CD1B748001F006800F4800091
:104D0000B0B9B44808380068C0F3400020B1E0688A
:104D1000012801D0012063E7AE480838006820F080
:104D2000F800216940EAC100AA490839086037E063
:104D3000E06800B30120A8490860FEF77DFF054642
:104D400006E0FEF779FF401B022801D9032047E760
:104D5000A04808380068C0F340000028F1D09D4802
:104D60000838006820F0F800216940EAC10099493C
:104D70000839086014E0002097490860FEF75CFFDE
:104D8000054606E0FEF758FF401B022801D9032024
:104D900026E7904808380068C0F340000028F1D1A9
:104DA000207800F0080008282CD16069A8B1012003
:104DB0008A490860FEF740FF054606E0FEF73CFF23
:104DC000401B022801D903200AE782486C300068A2
:104DD000C0F340000028F1D014E000207F490860B3
:104DE000FEF72AFF054606E0FEF726FF401B0228D5
:104DF00001D90320F4E677486C300068C0F3400026
:104E00000028F1D1207800F00400042870D1002798
:104E100070483830006800F0805090B900BF002022
:104E200000906C483830006840F080506949383153
:104E300008600846006800F08050009000BF00BF86
:104E400001276748006800F48070B0B964480068C2
:104E500040F4807062490860FEF7EEFE054606E009
:104E6000FEF7EAFE401B022801D90320B8E65C48A1
:104E7000006800F480700028F2D000BFA06801280C
:104E800008D154486830006840F001005149683149
:104E900008601DE0A06805280DD14E486830006804
:104EA00040F004004B49683108600846006840F053
:104EB000010008600CE047486830006820F00100FD
:104EC0004449683108600846006820F00400086022
:104ED00000BFA068A8B1FEF7AFFE054609E0FEF7E7
:104EE000ABFE401B41F28831884202D9032077E6AD
:104EF00026E0384868300068C0F340000028EED053
:104F000013E0FEF799FE054608E0FEF795FE401B0C
:104F100041F28831884201D9032061E62D4868308A
:104F20000068C0F340000028EFD1012F07D12948C5
:104F30003830006820F0805026493831086000BFC2
:104F4000A069002845D02348006800F00C0008281C
:104F50005DD0A069022845D100201F490866FEF7F0
:104F60006BFE054606E0FEF767FE401B022801D9EE
:104F7000032035E6174808380068C0F34060002871
:104F8000F1D1D4E907010843616A40EA81110122A5
:104F9000A06AC2EB500041EA00412C20005D41EACA
:104FA00000600C49091F086001200B490866FEF7E4
:104FB00043FE054606E0FEF73FFE401B022801D9EE
:104FC00003200DE6034808380068C0F3406000285D
:104FD000F1D049E00838024000004742800E4742C5
:104FE00000700040002021490866FEF725FE0546B6
:104FF00006E0FEF721FE401B022801D90320EFE561
:105000001B480068C0F340600028F2D12CE0A06982
:10501000012800D1E4E51648001D0668A0690128B2
:1050200020D006F48001E06981421BD106F03F01E7
:10503000206A814216D147F6C0703040616AB0EBF9
:10504000811F0FD106F440310122A06AC2EB50004B
:10505000B1EB004F06D106F070612C20005DB1EB82
:10506000006F01D00120BBE50020B9E500004742F8
:10507000003802402DE9F04104460E46002700BFEB
:105080002079012802D10220BDE8F08101202071A1
:1050900000BF6079012827D102206071FEF7CCFDA6
:1050A000054613E0FEF7C8FD401B02280ED9206814
:1050B000406800F0010048B9012060710220A06042
:1050C00000BF0020207100BF0120DDE7206840689C
:1050D00000F001000028E5D020688068E060E0680A
:1050E00030600120607102E00420A060012700BF51
:1050F0000020207100BF3846C6E710B504460CB941
:10510000012010BD607920B900202071204600F0F8
:105110000EF8022060712068006840F004002168E9
:105120000860012060710020A06000BFE9E77047BF
:1051300070B504460D460CB9012070BD94F82C00E2
:1051400028B9002084F82D00204600F011F8022034
:1051500084F82C00211D2068FDF7F5FA2946D4E9D2
:105160000002FDF75BFB012084F82C000020E4E73F
:1051700038B5044600BF002000900848006840F0A1
:105180000100064908600846006800F00100009030
:1051900000BF00BF02F0EEFA38BD00003838024010
:1051A00070B504460D4694F82C00022800D170BD5D
:1051B00094F82C0001280AD1022084F82C002946FA
:1051C0002068FDF7F6FA012084F82C0001E00120A8
:1051D000EDE70020EBE72DE9F04104460E461746C7
:1051E00094F82C50022D02D10220BDE8F081012D4F
:1051F00001D0052D12D1022084F82C003A46314608
:105200002068FDF7E0FA3068022803D1052084F811
:105210002C0005E0012084F82C0001E00120E4E7E7
:105220000020E2E710B504460CB9012010BD606A09
:1052300038B96068B0F5827F00D105E00021E161F6
:1052400002E0002121616161A06AB0F5005F00D138
:1052500000BF94F8510028B9002084F8500020467F
:1052600000F050F8022084F851002068006820F017
:10527000400021680860A08800F48270218901F450
:1052800004410843A18901F400610843217C01F035
:1052900002010843217D01F001010843218B01F443
:1052A00000710843217F01F0380108432021095D86
:1052B00001F080010843218D01F400510843216869
:1052C00008600421A06901EA104094F8241001F05C
:1052D0001001084321684860A06AB0F5005F03D15F
:1052E000A08D80B2216808612068C06920F4006048
:1052F0002168C86100206065012084F85100002009
:1053000094E7000010B586B0044600BF002000906E
:105310002F48006840F020002D49086008460068CA
:1053200000F02000009000BF00BF00BF00200090F0
:105330000846006840F0200008600846006800F059
:105340002000009000BF00BF00BF00200090084672
:10535000006840F0200008600846006800F0200067
:10536000009000BF00BF00BF00200090084600680A
:1053700040F0200008600846006800F0200000901F
:1053800000BF00BF88150190022002900320049006
:10539000012003900520059001A90E48FEF73EFB71
:1053A0004FF40070019001A90A48FEF737FB8020F6
:1053B000019001A90748FEF731FB40200190012030
:1053C000029001A90348FEF729FB06B010BD0000BA
:1053D000303802400014024070B504462546681E6D
:1053E000B0F1807F01D301200FE0681E4FF0E02173
:1053F00048610F214FF0FF3002F0DCFF00204FF03A
:10540000E021886107200861002070BD7047704767
:10541000704770B504462068C5682068066906F0C4
:105420000200022819D105F00200022815D1401F00
:1054300021680861012020772068806900F003005E
:1054400018B12046FFF7E4FF05E0204600F097F88A
:10545000204600F095F80020207706F0040004288C
:1054600019D105F00400042815D1C0432168086152
:10547000022020772068806900F4407018B120462F
:10548000FFF7C6FF05E0204600F079F8204600F05F
:1054900077F80020207706F00800082819D105F0D9
:1054A0000800082815D1C04321680861042020772E
:1054B0002068C06900F0030018B12046FFF7A8FF7C
:1054C00005E0204600F05BF8204600F059F8002087
:1054D000207706F01000102819D105F010001028D0
:1054E00015D1C04321680861082020772068C06971
:1054F00000F4407018B12046FFF78AFF05E020460F
:1055000000F03DF8204600F03BF80020207706F040
:10551000010048B105F0010030B16FF001002168D1
:105520000861204600F02EF806F08000802809D19E
:1055300005F08000802805D1C0432168086120461D
:10554000FFF764FF06F04000402809D105F0400055
:10555000402805D1C04321680861204600F020F8AA
:1055600006F02000202809D105F02000202805D1D0
:10557000C043216808612046FFF749FF70BD7047AE
:10558000704700000449884204D104490968491C55
:10559000024A11607047000098080020E4040020CF
:1055A00070477047704700002DE9F84F04462068A7
:1055B00005682068C668206847694FF00009CA4638
:1055C00005F00F09B9F1000F0AD105F0200038B13C
:1055D00006F0200020B1204602F098FCBDE8F88FCC
:1055E000B9F1000F7CD007F0010018B906F49070F3
:1055F000002875D005F0010030B106F4807018B1B4
:10560000606C40F00100606405F0040030B107F008
:10561000010018B1606C40F00200606405F0020007
:1056200030B107F0010018B1606C40F00400606414
:1056300005F0080048B106F0200010B907F001009D
:1056400018B1606C40F008006064606C002846D0BF
:1056500005F0200028B106F0200010B1204602F02D
:1056600055FC20684069C0F3801A606C00F00800A7
:1056700010B9BAF1000F2DD0204602F001FC2068CD
:10568000406900F04000402820D100BF00BF2168E1
:10569000143151E8001F21F040002168143141E825
:1056A0000002002AF3D100BFE06B50B17748E16BF4
:1056B0000865E06BFEF78AF988B1E06B016D8847F9
:1056C0000DE02046FFF76EFF09E009E02046FFF7F6
:1056D00069FF04E02046FFF765FF002060647DE776
:1056E000206B012878D105F01000002874D006F056
:1056F00010000028FAD000BF002000902068006849
:10570000009020684068009000BF00BF206840699A
:1057100000F04000402860D1E06B006840681FFA4C
:1057200080F8B8F1000F56D0A08D404553DDA4F8A5
:105730002E80E06BC069B0F5807F43D000BF00BF12
:1057400021680C3151E8001F21F4807021680C3170
:1057500041E80002002AF3D100BF00BF00BF21686A
:10576000143151E8001F21F001002168143141E893
:105770000002002AF3D100BF00BF00BF216814312E
:1057800051E8001F21F040002168143141E8000277
:10579000002AF3D100BF202084F8420000202063BB
:1057A00000BF00BF21680C3151E8001F21F010003C
:1057B00021680C3141E80002002AF3D100BFE06B00
:1057C000FEF7AEF802206063A08DE28D801A81B2F0
:1057D0002046FFF7E6FE01E742E0A08DE18D401A8A
:1057E0001FFA80F8E08DD0B3B8F1000F37D000BFBA
:1057F00000BF21680C3151E8001F21F4907021682E
:105800000C3141E80002002AF3D100BF00BF00BF05
:105810002168143151E8001F21F001002168143182
:1058200041E80002002AF3D100BF202084F84200A2
:105830000020206300BF00BF21680C3151E8001F29
:1058400021F0100021680C3141E80002002AF3D158
:1058500000BF0220606341462046FFF7A2FEBDE67E
:1058600005F0800030B106F0800018B1204602F04B
:1058700001FDB3E605F0400030B106F0400018B17C
:10588000204602F033FBA9E600BFA7E66D7E0008C4
:1058900010B504460CB9012010BDA06900B100E0AC
:1058A00000BF94F8410028B9002084F84000204649
:1058B00000F02AF8242084F841002068C06820F411
:1058C00000502168C860204602F09EFB20680069F5
:1058D00020F49040216808612068406920F02A0087
:1058E000216848612068C06840F400502168C860A1
:1058F00000206064202084F8410084F842000020E9
:10590000606300BFC8E7000010B586B0044600BF62
:10591000002000902648006840F0010024490860FB
:105920000846006800F00100009000BF00BF00BF03
:10593000002000900846006840F00100086008461A
:10594000006800F00100009000BF00BF00BF002011
:10595000009017481430006840F0100014491431CA
:1059600008600846006800F01000009000BF00BF0B
:10597000481501900220029000200390022004901C
:105980000720059001A90B48FEF748F84FF4806006
:10599000019001A90748FEF741F801221146252090
:1059A000FEF7D3FD2520FEF7BCFD06B010BD0000BC
:1059B000303802400000024070B504460D461646DD
:1059C00094F8420020280BD105B10EB9012070BD1A
:1059D0000020206332462946204602F02BFCF6E7E1
:1059E0000220F4E710B504461C4800781C491D4A03
:1059F0001278885408461B490978405C0A2822D14D
:105A00004FF47A7319221849184800F031F84FF40E
:105A10007A7314480278521C1149144800F028F88F
:105A200009E000210E480F4A127881540D48007891
:105A3000401E0C4908700B4800780028F1DC00205B
:105A40000749087004E007480078401C05490870C1
:105A5000012202490548FFF7AFFF10BD20000020DA
:105A6000940500203A000020210000204C05002071
:105A70002DE9F84F04460E46174699464FF0000AA6
:105A800094F84100202850D106B117B90120BDE893
:105A9000F88F00206064212084F84100FEF7CCF8E4
:105AA0008246A784E784A068B0F5805F04D12069AE
:105AB00010B90025B04602E035464FF000081EE060
:105AC0005346002280212046CDF8009002F002FCCF
:105AD00020B1202084F841000320D8E745B9B8F868
